S00B00004C43442E7372656346
S11300000C944A000C945F000C945F000C945F0005
S11300100C945F000C945F000C945F000C945F00E0
S11300200C945F000C945F000C945F000C945F00D0
S11300300C945F000C945F000C945F000C945F00C0
S11300400C945F000C945F000C945F000C945F00B0
S11300500C945F00001F000000001F00001F101020
S113006010101F00001F181818181F00001F1C1C58
S11300701C1C1F00001F1E1E1E1E1F00001F1F1F12
S11300801F1F1F0003070F1F0F070300181C1E1F4D
S11300901E1C180011241FBECFE5D4E0DEBFCDBF67
S11300A010E0A0E6B0E0E0E7F4E002C005900D92B5
S11300B0AC37B107D9F70E94D4010C9436020C94E2
S11300C00000C098C298C19898B39F7098BB98B329
S11300D0282F207F922B98BBC198C29AE3EFF1E0BE
S11300E03197F1F700C00000C29898B39F7098BB95
S11300F028B3F0E18F9FC0011124822B88BBC29AE0
S113010083EF91E00197F1F700C00000C2980895D1
S1130110C09AC198C29898B39F7098BB98B3282F7F
S1130120207F922B98BBC198C29AE3EFF1E03197FC
S1130130F1F700C00000C29898B39F7098BB28B331
S1130140F0E18F9FC0011124822B88BBC29A83EFF8
S113015091E00197F1F700C00000C2980895982F2C
S1130160907F98BBC29AE9EFF0E03197F1F700C0B5
S11301700000C298E9EFF0E03197F1F700C0000009
S1130180F0E18F9FC001112488BBC29A89EF90E0EF
S11301900197F1F700C00000C298E9EFF0E0319751
S11301A0F1F700C000000895982F907F98BBC09A83
S11301B0C29AE9EFF0E03197F1F700C00000C2986D
S11301C0C098E9EFF0E03197F1F700C00000F0E1EA
S11301D08F9FC001112488BBC09AC29A89EF90E016
S11301E00197F1F700C00000C298C098E9EFF0E071
S11301F03197F1F700C000000895EF92FF920F933A
S11302001F93CF93DF938C01660F660F660F6064B4
S1130210E62EC0E0D0E0F801EC0FFD1FF4908C2F27
S11302208E0D0E94AF008F2D0E94D4002196C830FD
S1130230D10589F7DF91CF911F910F91FF90EF9036
S113024008951F93CF93DF9385EA9EE00197F1F71A
S113025000C0000018BA18BA87B3806F87BB87B391
S1130260876087BB80E388BBC29A89EF90E00197DF
S1130270F1F700C00000C29889EF90E00197F1F710
S113028000C0000080E388BBC29A89EF90E0019728
S1130290F1F700C00000C29889EF90E00197F1F7F0
S11302A000C0000080E288BBC29A89EF90E0019709
S11302B0F1F700C00000C29889EF90E00197F1F7D0
S11302C000C0000088E20E94AF008CE00E94AF00F2
S11302D0C4E5D0E060E011E0160FCE010E94FD00FD
S11302E02896183011F0612FF6CFDF91CF911F912E
S11302F0089581E00E94610083ED90E30197F1F796
S113030000C000000895CF93DF93EC018881882317
S113031031F021960E94880089918111FBCFDF91F1
S1130320CF910895883228F46111806480680E9416
S1130330610008950F931F93CF93DF93EC0168EE50
S113034073E00E940E02162F80E3860F0E9488003D
S113035028E13CEF129FC001139F900D11248C0FD4
S11303609D1F019704E610E0B8010E940E0280E38D
S1130370860F0E948800CE01B8010E940E020AE096
S113038010E0B8010E940E0280E3860F0E948800EC
S1130390CE01B8010E940E02805D0E948800DF91A8
S11303A0CF911F910F9108958FEF87BB0E94210178
S11303B00E94790180E690E00E9483012FE78AE1A0
S11303C096E0215080409040E1F700C0000061E0D9
S11303D081E00E9492018DE690E00E9483018CE00E
S11303E090E00E949A012FE78AE196E02150804034
S11303F09040E1F700C000000E94790182E790E09C
S11304000E9483012FE78AE196E0215080409040CA
S1130410E1F700C0000080E090E0089597FB072E0C
S113042016F4009407D077FD09D00E94220207FC3D
S113043005D03EF4909581959F4F089570956195F0
S11304407F4F0895AA1BBB1B51E107C0AA1FBB1F06
S1130450A617B70710F0A61BB70B881F991F5A954C
S1130460A9F780959095BC01CD010895F894FFCF2C
S11304704C43442041544D4547413136004861794D
S10F048021006265727369683132330038
S9030000FC
