S00B00004C43442E7372656346
S11300000C944A000C945F000C945F000C945F0005
S11300100C945F000C945F000C945F000C945F00E0
S11300200C945F000C945F000C945F000C945F00D0
S11300300C945F000C945F000C945F000C945F00C0
S11300400C945F000C945F000C945F000C945F00B0
S11300500C945F00001F000000001F00001F101020
S113006010101F00001F181818181F00001F1C1C58
S11300701C1C1F00001F1E1E1E1E1F00001F1F1F12
S11300801F1F1F0003070F1F0F070300181C1E1F4D
S11300901E1C180011241FBECFE5D4E0DEBFCDBF67
S11300A010E0A0E6B0E0EEEFF3E002C005900D92A0
S11300B0AE37B107D9F70E948D010C94FD010C9461
S11300C00000982F907F98BBC29AE9EFF0E0319737
S11300D0F1F700C00000C298E9EFF0E03197F1F7C2
S11300E000C00000F0E18F9FC001112488BBC29AB8
S11300F089EF90E00197F1F700C00000C298E9EFA2
S1130100F0E03197F1F700C000000895982F907F38
S113011098BBC09AC29AE9EFF0E03197F1F700C0BA
S11301200000C298C098E9EFF0E03197F1F700C001
S11301300000F0E18F9FC001112488BBC09AC29ACD
S113014089EF90E00197F1F700C00000C298C098D1
S1130150E9EFF0E03197F1F700C000000895EF9265
S1130160FF920F931F93CF93DF938C01660F660F5B
S1130170660F6064E62EC0E0D0E0F801EC0FFD1FCE
S1130180F4908C2F8E0D0E9461008F2D0E948600AA
S11301902196C830D10589F7DF91CF911F910F9136
S11301A0FF90EF9008951F93CF93DF9385EA9EE02D
S11301B00197F1F700C0000018BA18BA87B3806F2E
S11301C087BB87B3876087BB80E388BBC29A89EF0C
S11301D090E00197F1F700C00000C29889EF90E029
S11301E00197F1F700C0000080E388BBC29A89EF51
S11301F090E00197F1F700C00000C29889EF90E009
S11302000197F1F700C0000080E288BBC29A89EF31
S113021090E00197F1F700C00000C29889EF90E0E8
S11302200197F1F700C0000088E20E9461008CE0B1
S11302300E946100C4E5D0E060E011E0160FCE0139
S11302400E94AF002896183011F0612FF6CFDF918D
S1130250CF911F91089581E00E94610083ED90E3A6
S11302600197F1F700C000000895CF93DF93EC01EC
S11302708881882331F021960E948600899181111A
S1130280FBCFDF91CF910895623031F0633031F0CC
S1130290613029F4805C03C08C5E01C08C5A806894
S11302A00E94610008950F931F93CF93DF93EC0195
S11302B068EE73E00E94D501162F80E3860F0E943A
S11302C0860028E13CEF129FC001139F900D11247A
S11302D08C0F9D1F019704E610E0B8010E94D50120
S11302E080E3860F0E948600CE01B8010E94D501EA
S11302F00AE010E0B8010E94D50180E3860F0E9455
S11303008600CE01B8010E94D501805D0E9486005E
S1130310DF91CF911F910F9108958FEF87BB0E94BA
S1130320D3000E942B0180E690E00E9435012FE764
S11303308AE196E0215080409040E1F700C000003F
S113034061E081E00E9444018EE690E00E94350164
S11303508CE090E00E9453012FE78AE196E021505F
S113036080409040E1F700C000000E942B0183E729
S113037090E00E9435012FE78AE196E02150804009
S11303809040E1F700C000000E942B0187E60E9424
S113039086002FE78AE196E0215080409040E1F703
S11303A000C0000080E090E0089597FB072E16F44B
S11303B0009407D077FD09D00E94E90107FC05D01D
S11303C03EF4909581959F4F0895709561957F4F68
S11303D00895AA1BBB1B51E107C0AA1FBB1FA61788
S11303E0B70710F0A61BB70B881F991F5A95A9F7DA
S11103F080959095BC01CD010895F894FFCF3F
S11303FE48616C6F2064617269204C43440048610B
S111040E79210062657273696831323300002F
S9030000FC
