:100000000C942A000C943F000C943F000C943F0089
:100010000C943F000C943F000C943F000C943F0064
:100020000C943F000C943F000C943F000C943F0054
:100030000C943F000C943F000C943F000C943F0044
:100040000C943F000C943F000C943F000C943F0034
:100050000C943F0011241FBECFE5D4E0DEBFCDBF1E
:1000600010E0A0E6B0E0ECE1F3E002C005900D92F4
:10007000A437B107D9F70E9437010C948C010C9476
:100080000000C098C298C19898B39F7098BB98B36D
:10009000282F207F922B98BBC198C29AE3EFF1E002
:1000A0003197F1F700C00000C29898B39F7098BBD9
:1000B00028B3F0E18F9FC0011124822B88BBC29A24
:1000C00083EF91E00197F1F700C00000C298089516
:1000D000C09AC198C29898B39F7098BB98B3282FC4
:1000E000207F922B98BBC198C29AE3EFF1E0319741
:1000F000F1F700C00000C29898B39F7098BB28B376
:10010000F0E18F9FC0011124822B88BBC29A83EF3C
:1001100091E00197F1F700C00000C2980895C098DF
:10012000C298C19888B3806388BB8FE097E201973B
:10013000F1F700C00000C29AC29881EE94E00197E6
:10014000F1F700C00000C29AC29881EE94E00197D6
:10015000F1F700C00000C29AC29883EF91E00197C6
:10016000F1F700C0000088B3807288BBC29AC298C1
:1001700088E20E94410083ED90E30197F1F700C00F
:1001800000008EE00E94410083ED90E30197F1F7BB
:1001900000C0000081E00E94410083ED90E30197E0
:1001A000F1F700C0000086E00E94410083ED90E37B
:1001B0000197F1F700C0000080E80E94410083ED44
:1001C00090E30197F1F700C000000895CF93DF930B
:1001D000EC018881882331F021960E946800899182
:1001E0008111FBCFDF91CF910895883228F46111FE
:1001F000806480680E94410008950F931F93CF93FD
:10020000DF93EC0168EE73E00E946401162F80E337
:10021000860F0E94680028E13CEF129FC001139FE7
:10022000900D11248C0F9D1F019704E610E0B8017A
:100230000E94640180E3860F0E946800CE01B8012D
:100240000E9464010AE010E0B8010E94640180E3AA
:10025000860F0E946800CE01B8010E946401805D93
:100260000E946800DF91CF911F910F9108958EEF4A
:100270008ABB8FEF87BB0E948F0080E690E00E94D0
:10028000E6002FE78AE196E0215080409040E1F7B8
:1002900000C00000369A3699FECFC4B1D5B161E0F6
:1002A00081E00E94F5008DE690E00E94E600CE011C
:1002B0000E94FD002FE789EA93E0215080409040A2
:1002C000E1F700C00000E6CF97FB072E16F400947C
:1002D00007D077FD09D00E94780107FC05D03EF4D5
:1002E000909581959F4F0895709561957F4F0895E2
:1002F000AA1BBB1B51E107C0AA1FBB1FA617B7074C
:1003000010F0A61BB70B881F991F5A95A9F7809567
:0C0310009095BC01CD010895F894FFCF3A
:10031C004C43442041544D45474131360041444300
:04032C00203D200050
:00000001FF
